{
  "address": "0xED894c860c17E5f4f96E3715107964b5f14AbC56",
  "abi": [
    {
      "inputs": [
        {
          "internalType": "uint256",
          "name": "_minDepositValue",
          "type": "uint256"
        }
      ],
      "stateMutability": "nonpayable",
      "type": "constructor"
    },
    {
      "inputs": [
        {
          "internalType": "uint256",
          "name": "",
          "type": "uint256"
        }
      ],
      "name": "EmptyStaking",
      "type": "error"
    },
    {
      "inputs": [
        {
          "internalType": "uint256",
          "name": "",
          "type": "uint256"
        }
      ],
      "name": "NoValue",
      "type": "error"
    },
    {
      "inputs": [
        {
          "internalType": "address",
          "name": "owner",
          "type": "address"
        }
      ],
      "name": "OwnableInvalidOwner",
      "type": "error"
    },
    {
      "inputs": [
        {
          "internalType": "address",
          "name": "account",
          "type": "address"
        }
      ],
      "name": "OwnableUnauthorizedAccount",
      "type": "error"
    },
    {
      "anonymous": false,
      "inputs": [
        {
          "indexed": true,
          "internalType": "address",
          "name": "previousOwner",
          "type": "address"
        },
        {
          "indexed": true,
          "internalType": "address",
          "name": "newOwner",
          "type": "address"
        }
      ],
      "name": "OwnershipTransferred",
      "type": "event"
    },
    {
      "anonymous": false,
      "inputs": [
        {
          "indexed": false,
          "internalType": "uint256",
          "name": "",
          "type": "uint256"
        }
      ],
      "name": "TokenLocked",
      "type": "event"
    },
    {
      "anonymous": false,
      "inputs": [
        {
          "indexed": false,
          "internalType": "uint256",
          "name": "",
          "type": "uint256"
        }
      ],
      "name": "TokenUnlocked",
      "type": "event"
    },
    {
      "inputs": [],
      "name": "checkout",
      "outputs": [
        {
          "internalType": "bool",
          "name": "",
          "type": "bool"
        }
      ],
      "stateMutability": "nonpayable",
      "type": "function"
    },
    {
      "inputs": [],
      "name": "deposit",
      "outputs": [
        {
          "internalType": "bool",
          "name": "",
          "type": "bool"
        }
      ],
      "stateMutability": "payable",
      "type": "function"
    },
    {
      "inputs": [],
      "name": "depositors",
      "outputs": [
        {
          "internalType": "uint256",
          "name": "",
          "type": "uint256"
        }
      ],
      "stateMutability": "view",
      "type": "function"
    },
    {
      "inputs": [],
      "name": "getProfile",
      "outputs": [
        {
          "components": [
            {
              "internalType": "uint256",
              "name": "depositTime",
              "type": "uint256"
            },
            {
              "internalType": "uint256",
              "name": "ethAmount",
              "type": "uint256"
            },
            {
              "internalType": "address",
              "name": "wallet",
              "type": "address"
            }
          ],
          "internalType": "struct IFactory.Staker",
          "name": "stk",
          "type": "tuple"
        }
      ],
      "stateMutability": "view",
      "type": "function"
    },
    {
      "inputs": [],
      "name": "minDepositValue",
      "outputs": [
        {
          "internalType": "uint256",
          "name": "",
          "type": "uint256"
        }
      ],
      "stateMutability": "view",
      "type": "function"
    },
    {
      "inputs": [],
      "name": "owner",
      "outputs": [
        {
          "internalType": "address",
          "name": "",
          "type": "address"
        }
      ],
      "stateMutability": "view",
      "type": "function"
    },
    {
      "inputs": [],
      "name": "renounceOwnership",
      "outputs": [],
      "stateMutability": "nonpayable",
      "type": "function"
    },
    {
      "inputs": [
        {
          "internalType": "contract IERC20Extended",
          "name": "_token",
          "type": "address"
        }
      ],
      "name": "setToken",
      "outputs": [],
      "stateMutability": "nonpayable",
      "type": "function"
    },
    {
      "inputs": [],
      "name": "token",
      "outputs": [
        {
          "internalType": "contract IERC20Extended",
          "name": "",
          "type": "address"
        }
      ],
      "stateMutability": "view",
      "type": "function"
    },
    {
      "inputs": [
        {
          "internalType": "address",
          "name": "newOwner",
          "type": "address"
        }
      ],
      "name": "transferOwnership",
      "outputs": [],
      "stateMutability": "nonpayable",
      "type": "function"
    },
    {
      "inputs": [],
      "name": "withdraw",
      "outputs": [],
      "stateMutability": "nonpayable",
      "type": "function"
    },
    {
      "stateMutability": "payable",
      "type": "receive"
    }
  ],
  "transactionHash": "0xddf2d902c66b49fb1957725c3606dc3ebbf867c6b38cdbaccfd26233b953c0d8",
  "args": [
    "1000000000000"
  ],
  "numDeployments": 1,
  "solcInputHash": "eafc940ee0e93d2a625f020fff75d8db",
  "bytecode": "0x608060405234801561001057600080fd5b506040516111e53803806111e583398101604081905261002f91610161565b61004064010000000061010d810204565b600160a060020a038116610088576040517f1e4fbdf7000000000000000000000000000000000000000000000000000000008152600060048201526024015b60405180910390fd5b61009a81640100000000610111810204565b5060008111610105576040517f08c379a000000000000000000000000000000000000000000000000000000000815260206004820152601760248201527f4d696e696d756d207374616b696e6720746f6f206c6f77000000000000000000604482015260640161007f565b60015561017a565b3390565b60008054600160a060020a03838116600160a060020a0319831681178455604051919092169283917f8be0079c531659141344cd1fd0a4f28419497f9722a3daafe3b4186f6b6457e09190a35050565b60006020828403121561017357600080fd5b5051919050565b61105c806101896000396000f3fe6080604052600436106100a45760003560e060020a900480638da5cb5b116100685780638da5cb5b1461017a578063aaa46688146101ac578063d0e30db0146101c2578063d6afc9b1146101ca578063f2fde38b1461020a578063fc0c546a1461022a57600080fd5b806306099d69146100e2578063070c82a81461010c578063144fa6d7146101305780633ccfd60b14610150578063715018a61461016557600080fd5b366100dd57600034116100db5760405160e560020a62461bcd02815260206004820152600060248201526044015b60405180910390fd5b005b600080fd5b3480156100ee57600080fd5b506100f761024a565b60405190151581526020015b60405180910390f35b34801561011857600080fd5b5061012260015481565b604051908152602001610103565b34801561013c57600080fd5b506100db61014b366004610a3b565b610346565b34801561015c57600080fd5b506100db61037d565b34801561017157600080fd5b506100db610465565b34801561018657600080fd5b50600054600160a060020a03165b604051600160a060020a039091168152602001610103565b3480156101b857600080fd5b5061012260025481565b6100f7610479565b3480156101d657600080fd5b506101df610604565b60408051825181526020808401519082015291810151600160a060020a031690820152606001610103565b34801561021657600080fd5b506100db610225366004610a3b565b61063f565b34801561023657600080fd5b5060035461019490600160a060020a031681565b3360009081526004602090815260408083208151606081018352815481526001820154938101849052600290910154600160a060020a0316918101919091529082036102ca5780602001516040517f5be792e20000000000000000000000000000000000000000000000000000000081526004016100d291815260200190565b6040810151600160a060020a03166103275760405160e560020a62461bcd02815260206004820152601960248201527f4163636f756e7420616e6f6d616c6c792064657465637465640000000000000060448201526064016100d2565b61033e816040015182602001518360000151610696565b600191505090565b61034e6107dd565b6003805473ffffffffffffffffffffffffffffffffffffffff1916600160a060020a0392909216919091179055565b600061038833610823565b604001519050600160a060020a0381166325e160633360405160e060020a63ffffffff8416028152600160a060020a039091166004820152602401600060405180830381600087803b1580156103dd57600080fd5b505af11580156103f1573d6000803e3d6000fd5b5050505080600160a060020a031663f4f3b20061040b3390565b60405160e060020a63ffffffff8416028152600160a060020a039091166004820152602401600060405180830381600087803b15801561044a57600080fd5b505af115801561045e573d6000803e3d6000fd5b5050505050565b61046d6107dd565b6104776000610894565b565b6000808061048633610823565b90506001543410156104c6576040517f2c83dd4e0000000000000000000000000000000000000000000000000000000081523460048201526024016100d2565b60408101519150600160a060020a03821661052657600354604051600160a060020a03909116906104f690610a19565b600160a060020a039091168152602001604051809103906000f080158015610522573d6000803e3d6000fd5b5091505b602081015115610543576105438282602001518360000151610696565b60405180606001604052806105554290565b815234602080830191909152600160a060020a03858116604093840152336000908152600483528381208551815592850151600184015593909201516002918201805473ffffffffffffffffffffffffffffffffffffffff191691909316179091558054916105c383610a8e565b90915550506040513481527f886574b2eee64153fbfb4ca8878ae1db0724a35326423f17ded4dd325a27a0c09060200160405180910390a160019250505090565b610631604051806060016040528060008152602001600081526020016000600160a060020a031681525090565b61063a33610823565b905090565b6106476107dd565b600160a060020a03811661068a576040517f1e4fbdf7000000000000000000000000000000000000000000000000000000008152600060048201526024016100d2565b61069381610894565b50565b600280549060006106a683610aa7565b91905055506000600460006106b83390565b600160a060020a0316600160a060020a0316815260200190815260200160002060010181905550600083600160a060020a03168360405160006040518083038185875af1925050503d806000811461072c576040519150601f19603f3d011682016040523d82523d6000602084013e610731565b606091505b50509050806107855760405160e560020a62461bcd02815260206004820152601160248201527f5472616e736665722072656a656374656400000000000000000000000000000060448201526064016100d2565b600061079184846108f1565b905080156107a3576107a3858261095c565b6040518481527f7ff05c79c2a3d239576a86d8af5c623d17e7a676e424313ca21481b15047783f9060200160405180910390a15050505050565b600054600160a060020a03163314610477576040517f118cdaa70000000000000000000000000000000000000000000000000000000081523360048201526024016100d2565b610850604051806060016040528060008152602001600081526020016000600160a060020a031681525090565b50600160a060020a03908116600090815260046020908152604091829020825160608101845281548152600182015492810192909252600201549092169082015290565b60008054600160a060020a0383811673ffffffffffffffffffffffffffffffffffffffff19831681178455604051919092169283917f8be0079c531659141344cd1fd0a4f28419497f9722a3daafe3b4186f6b6457e09190a35050565b6000603c4283810361090e5766038d7ea4c6800092505050610956565b838111156109535760006109228583610abe565b9050801561094657826109358783610ad1565b61093f9190610ae8565b9350610951565b66038d7ea4c6800093505b505b50505b92915050565b6003546040517f40c10f19000000000000000000000000000000000000000000000000000000008152600160a060020a03848116600483015260248201849052909116906340c10f19906044016020604051808303816000875af11580156109c8573d6000803e3d6000fd5b505050506040513d601f19601f820116820180604052508101906109ec9190610b23565b610a155760405160e560020a62461bcd02815260206004820152600060248201526044016100d2565b5050565b6104e180610b4683390190565b600160a060020a038116811461069357600080fd5b600060208284031215610a4d57600080fd5b8135610a5881610a26565b9392505050565b7f4e487b7100000000000000000000000000000000000000000000000000000000600052601160045260246000fd5b600060018201610aa057610aa0610a5f565b5060010190565b600081610ab657610ab6610a5f565b506000190190565b8181038181111561095657610956610a5f565b808202811582820484141761095657610956610a5f565b600082610b1e577f4e487b7100000000000000000000000000000000000000000000000000000000600052601260045260246000fd5b500490565b600060208284031215610b3557600080fd5b81518015158114610a5857600080fdfe60806040526040516104e13803806104e18339810160408190526100229161006b565b610033640100000000610067810204565b60008054600160a060020a03928316600160a060020a0319918216179091556001805493909216921691909117905561009b565b3390565b60006020828403121561007d57600080fd5b8151600160a060020a038116811461009457600080fd5b9392505050565b610437806100aa6000396000f3fe608060405260043610610049577c0100000000000000000000000000000000000000000000000000000000600035046325e160638114610088578063f4f3b200146100aa57600080fd5b36610083576040513481527f353bcaaf167a6add95a753d39727e3d3beb865129a69a10ed774b0b8996714039060200160405180910390a1005b600080fd5b34801561009457600080fd5b506100a86100a3366004610396565b6100ca565b005b3480156100b657600080fd5b506100a86100c5366004610396565b6101ed565b600054600160a060020a031633600160a060020a03161461012a57335b6040517f0b104a5b000000000000000000000000000000000000000000000000000000008152600160a060020a0390911660048201526024015b60405180910390fd5b604051303190600090600160a060020a0384169083908381818185875af1925050503d8060008114610178576040519150601f19603f3d011682016040523d82523d6000602084013e61017d565b606091505b50509050806101e8576040517f08c379a000000000000000000000000000000000000000000000000000000000815260206004820152601160248201527f7769746864726177616c206661696c65640000000000000000000000000000006044820152606401610121565b505050565b600054600160a060020a031633600160a060020a03161461020e57336100e7565b6001546040517f70a08231000000000000000000000000000000000000000000000000000000008152306004820152600091600160a060020a0316906370a0823190602401602060405180830381865afa158015610270573d6000803e3d6000fd5b505050506040513d601f19601f8201168201806040525081019061029491906103c6565b90508015610392576001546040517fa9059cbb000000000000000000000000000000000000000000000000000000008152600160a060020a038481166004830152602482018490529091169063a9059cbb906044016020604051808303816000875af1158015610308573d6000803e3d6000fd5b505050506040513d601f19601f8201168201806040525081019061032c91906103df565b610392576040517f08c379a000000000000000000000000000000000000000000000000000000000815260206004820152600660248201527f4661696c656400000000000000000000000000000000000000000000000000006044820152606401610121565b5050565b6000602082840312156103a857600080fd5b8135600160a060020a03811681146103bf57600080fd5b9392505050565b6000602082840312156103d857600080fd5b5051919050565b6000602082840312156103f157600080fd5b815180151581146103bf57600080fdfea26469706673582212209cee98ce2e2857a2d2fc27f96a421625841c9e9298e7885145d6e7a064e5277564736f6c63430008180033a264697066735822122050146c66f93514560e5be411c8226f158b83c9d67df4899287be1472c750ac5d64736f6c63430008180033",
  "devdoc": {
    "errors": {
      "OwnableInvalidOwner(address)": [
        {
          "details": "The owner is not a valid owner account. (eg. `address(0)`)"
        }
      ],
      "OwnableUnauthorizedAccount(address)": [
        {
          "details": "The caller account is not authorized to perform an operation."
        }
      ]
    },
    "kind": "dev",
    "methods": {
      "checkout()": {
        "details": "Unstake Eth from the vault."
      },
      "deposit()": {
        "details": "Stake Eth for token reward. - The amount of Eth sent along the call should be greater       than the minimum staking amount. - If sender already own an interwallet otherwise we       create a new one for them. - We can make a dynamic staking i.e depositors can stake any amount      Eth, anytime. Each stake is unique to another in timing and      identity."
      },
      "owner()": {
        "details": "Returns the address of the current owner."
      },
      "renounceOwnership()": {
        "details": "Leaves the contract without owner. It will not be possible to call `onlyOwner` functions. Can only be called by the current owner. NOTE: Renouncing ownership will leave the contract without an owner, thereby disabling any functionality that is only available to the owner."
      },
      "setToken(address)": {
        "params": {
          "_token": ": Token address"
        }
      },
      "transferOwnership(address)": {
        "details": "Transfers ownership of the contract to a new account (`newOwner`). Can only be called by the current owner."
      }
    },
    "stateVariables": {
      "vault": {
        "details": "Mapping of rounds to stake vault"
      }
    },
    "version": 1
  },
  "userdoc": {
    "kind": "user",
    "methods": {
      "setToken(address)": {
        "notice": "onlyOwner function: SetToken"
      }
    },
    "version": 1
  },
  "storageLayout": {
    "storage": [
      {
        "astId": 8,
        "contract": "contracts/Factory.sol:Factory",
        "label": "_owner",
        "offset": 0,
        "slot": "0",
        "type": "t_address"
      },
      {
        "astId": 289,
        "contract": "contracts/Factory.sol:Factory",
        "label": "minDepositValue",
        "offset": 0,
        "slot": "1",
        "type": "t_uint256"
      },
      {
        "astId": 291,
        "contract": "contracts/Factory.sol:Factory",
        "label": "depositors",
        "offset": 0,
        "slot": "2",
        "type": "t_uint256"
      },
      {
        "astId": 294,
        "contract": "contracts/Factory.sol:Factory",
        "label": "token",
        "offset": 0,
        "slot": "3",
        "type": "t_contract(IERC20Extended)705"
      },
      {
        "astId": 300,
        "contract": "contracts/Factory.sol:Factory",
        "label": "vault",
        "offset": 0,
        "slot": "4",
        "type": "t_mapping(t_address,t_struct(Staker)714_storage)"
      }
    ],
    "types": {
      "t_address": {
        "encoding": "inplace",
        "label": "address",
        "numberOfBytes": "20"
      },
      "t_contract(IERC20Extended)705": {
        "encoding": "inplace",
        "label": "contract IERC20Extended",
        "numberOfBytes": "20"
      },
      "t_mapping(t_address,t_struct(Staker)714_storage)": {
        "encoding": "mapping",
        "key": "t_address",
        "label": "mapping(address => struct IFactory.Staker)",
        "numberOfBytes": "32",
        "value": "t_struct(Staker)714_storage"
      },
      "t_struct(Staker)714_storage": {
        "encoding": "inplace",
        "label": "struct IFactory.Staker",
        "members": [
          {
            "astId": 709,
            "contract": "contracts/Factory.sol:Factory",
            "label": "depositTime",
            "offset": 0,
            "slot": "0",
            "type": "t_uint256"
          },
          {
            "astId": 711,
            "contract": "contracts/Factory.sol:Factory",
            "label": "ethAmount",
            "offset": 0,
            "slot": "1",
            "type": "t_uint256"
          },
          {
            "astId": 713,
            "contract": "contracts/Factory.sol:Factory",
            "label": "wallet",
            "offset": 0,
            "slot": "2",
            "type": "t_address"
          }
        ],
        "numberOfBytes": "96"
      },
      "t_uint256": {
        "encoding": "inplace",
        "label": "uint256",
        "numberOfBytes": "32"
      }
    }
  }
}